{
  "_format": "hh-sol-artifact-1",
  "contractName": "SHMRegistry",
  "sourceName": "contracts/SHMRegistry.sol",
  "abi": [
    {
      "inputs": [],
      "stateMutability": "nonpayable",
      "type": "constructor"
    },
    {
      "anonymous": false,
      "inputs": [
        {
          "indexed": false,
          "internalType": "string",
          "name": "certNumber",
          "type": "string"
        },
        {
          "indexed": false,
          "internalType": "string",
          "name": "action",
          "type": "string"
        },
        {
          "indexed": false,
          "internalType": "address",
          "name": "actor",
          "type": "address"
        },
        {
          "indexed": false,
          "internalType": "uint256",
          "name": "timestamp",
          "type": "uint256"
        }
      ],
      "name": "HistoryAdded",
      "type": "event"
    },
    {
      "anonymous": false,
      "inputs": [
        {
          "indexed": false,
          "internalType": "string",
          "name": "certNumber",
          "type": "string"
        },
        {
          "indexed": false,
          "internalType": "string",
          "name": "oldOwner",
          "type": "string"
        },
        {
          "indexed": false,
          "internalType": "string",
          "name": "newOwner",
          "type": "string"
        }
      ],
      "name": "OwnerUpdated",
      "type": "event"
    },
    {
      "anonymous": false,
      "inputs": [
        {
          "indexed": false,
          "internalType": "string",
          "name": "certNumber",
          "type": "string"
        },
        {
          "indexed": false,
          "internalType": "bytes32",
          "name": "documentHash",
          "type": "bytes32"
        },
        {
          "indexed": false,
          "internalType": "string",
          "name": "cid",
          "type": "string"
        }
      ],
      "name": "SHMRegistered",
      "type": "event"
    },
    {
      "anonymous": false,
      "inputs": [
        {
          "indexed": false,
          "internalType": "string",
          "name": "certNumber",
          "type": "string"
        }
      ],
      "name": "SHMRevoked",
      "type": "event"
    },
    {
      "anonymous": false,
      "inputs": [
        {
          "indexed": false,
          "internalType": "string",
          "name": "certNumber",
          "type": "string"
        }
      ],
      "name": "SHMVerified",
      "type": "event"
    },
    {
      "inputs": [],
      "name": "admin",
      "outputs": [
        {
          "internalType": "address",
          "name": "",
          "type": "address"
        }
      ],
      "stateMutability": "view",
      "type": "function"
    },
    {
      "inputs": [
        {
          "internalType": "string",
          "name": "certNumber",
          "type": "string"
        }
      ],
      "name": "getHistory",
      "outputs": [
        {
          "internalType": "string[]",
          "name": "actions",
          "type": "string[]"
        },
        {
          "internalType": "address[]",
          "name": "actors",
          "type": "address[]"
        },
        {
          "internalType": "string[]",
          "name": "owners",
          "type": "string[]"
        },
        {
          "internalType": "string[]",
          "name": "niks",
          "type": "string[]"
        },
        {
          "internalType": "uint256[]",
          "name": "timestamps",
          "type": "uint256[]"
        }
      ],
      "stateMutability": "view",
      "type": "function"
    },
    {
      "inputs": [
        {
          "internalType": "string",
          "name": "cert",
          "type": "string"
        }
      ],
      "name": "getSHM",
      "outputs": [
        {
          "internalType": "string",
          "name": "",
          "type": "string"
        },
        {
          "internalType": "string",
          "name": "",
          "type": "string"
        },
        {
          "internalType": "bytes32",
          "name": "",
          "type": "bytes32"
        },
        {
          "internalType": "string",
          "name": "",
          "type": "string"
        },
        {
          "internalType": "string",
          "name": "",
          "type": "string"
        },
        {
          "internalType": "bool",
          "name": "",
          "type": "bool"
        }
      ],
      "stateMutability": "view",
      "type": "function"
    },
    {
      "inputs": [
        {
          "internalType": "string",
          "name": "certNumber",
          "type": "string"
        },
        {
          "internalType": "string",
          "name": "cid",
          "type": "string"
        },
        {
          "internalType": "bytes32",
          "name": "documentHash",
          "type": "bytes32"
        },
        {
          "internalType": "string",
          "name": "ownerName",
          "type": "string"
        },
        {
          "internalType": "string",
          "name": "ownerNIK",
          "type": "string"
        }
      ],
      "name": "registerSHM",
      "outputs": [],
      "stateMutability": "nonpayable",
      "type": "function"
    },
    {
      "inputs": [
        {
          "internalType": "string",
          "name": "certNumber",
          "type": "string"
        }
      ],
      "name": "revokeSHM",
      "outputs": [],
      "stateMutability": "nonpayable",
      "type": "function"
    },
    {
      "inputs": [
        {
          "internalType": "address",
          "name": "",
          "type": "address"
        }
      ],
      "name": "roles",
      "outputs": [
        {
          "internalType": "enum SHMRegistry.Role",
          "name": "",
          "type": "uint8"
        }
      ],
      "stateMutability": "view",
      "type": "function"
    },
    {
      "inputs": [
        {
          "internalType": "address",
          "name": "user",
          "type": "address"
        },
        {
          "internalType": "enum SHMRegistry.Role",
          "name": "role",
          "type": "uint8"
        }
      ],
      "name": "setRole",
      "outputs": [],
      "stateMutability": "nonpayable",
      "type": "function"
    },
    {
      "inputs": [
        {
          "internalType": "string",
          "name": "certNumber",
          "type": "string"
        },
        {
          "internalType": "string",
          "name": "newOwner",
          "type": "string"
        },
        {
          "internalType": "string",
          "name": "newNIK",
          "type": "string"
        }
      ],
      "name": "updateOwner",
      "outputs": [],
      "stateMutability": "nonpayable",
      "type": "function"
    },
    {
      "inputs": [
        {
          "internalType": "string",
          "name": "certNumber",
          "type": "string"
        }
      ],
      "name": "verifySHM",
      "outputs": [],
      "stateMutability": "nonpayable",
      "type": "function"
    }
  ],
  "bytecode": "0x608060405234801561001057600080fd5b5033600360006101000a81548173ffffffffffffffffffffffffffffffffffffffff021916908373ffffffffffffffffffffffffffffffffffffffff16021790555060016000803373ffffffffffffffffffffffffffffffffffffffff1673ffffffffffffffffffffffffffffffffffffffff16815260200190815260200160002060006101000a81548160ff021916908360018111156100b4576100b36100be565b5b02179055506100ed565b7f4e487b7100000000000000000000000000000000000000000000000000000000600052602160045260246000fd5b61290080620000fd6000396000f3fe608060405234801561001057600080fd5b50600436106100935760003560e01c8063b674ab4211610066578063b674ab421461011c578063d2bb9e0b14610151578063d497b8f91461016d578063e360736e14610189578063f851a440146101bd57610093565b80632440056f14610098578063571c3e60146100b4578063762801f9146100d057806399374642146100ec575b600080fd5b6100b260048036038101906100ad9190611a39565b6101db565b005b6100ce60048036038101906100c99190611b05565b610565565b005b6100ea60048036038101906100e59190611a39565b610680565b005b61010660048036038101906101019190611b45565b61099b565b6040516101139190611be9565b60405180910390f35b61013660048036038101906101319190611a39565b6109bb565b60405161014896959493929190611cb7565b60405180910390f35b61016b60048036038101906101669190611d60565b610ca6565b005b61018760048036038101906101829190611e4b565b610f4b565b005b6101a3600480360381019061019e9190611a39565b6111ee565b6040516101b4959493929190612184565b60405180910390f35b6101c561179a565b6040516101d29190612209565b60405180910390f35b6001808111156101ee576101ed611b72565b5b6000803373ffffffffffffffffffffffffffffffffffffffff1673ffffffffffffffffffffffffffffffffffffffff16815260200190815260200160002060009054906101000a900460ff16600181111561024c5761024b611b72565b5b1461028c576040517f08c379a000000000000000000000000000000000000000000000000000000000815260040161028390612270565b60405180910390fd5b600060018260405161029e91906122cc565b908152602001604051809103902060060154036102f0576040517f08c379a00000000000000000000000000000000000000000000000000000000081526004016102e79061232f565b60405180910390fd5b60018160405161030091906122cc565b908152602001604051809103902060050160019054906101000a900460ff161561035f576040517f08c379a00000000000000000000000000000000000000000000000000000000081526004016103569061239b565b60405180910390fd5b6001808260405161037091906122cc565b908152602001604051809103902060050160006101000a81548160ff0219169083151502179055507f2394904591432b988daff67b473d2559345e48b3243edfea12a1fc662da8955b816040516103c791906123bb565b60405180910390a1610562816040518060400160405280600681526020017f564552494659000000000000000000000000000000000000000000000000000081525060018460405161041991906122cc565b908152602001604051809103902060030180546104359061240c565b80601f01602080910402602001604051908101604052809291908181526020018280546104619061240c565b80156104ae5780601f10610483576101008083540402835291602001916104ae565b820191906000526020600020905b81548152906001019060200180831161049157829003601f168201915b50505050506001856040516104c391906122cc565b908152602001604051809103902060040180546104df9061240c565b80601f016020809104026020016040519081016040528092919081815260200182805461050b9061240c565b80156105585780601f1061052d57610100808354040283529160200191610558565b820191906000526020600020905b81548152906001019060200180831161053b57829003601f168201915b50505050506117c0565b50565b60018081111561057857610577611b72565b5b6000803373ffffffffffffffffffffffffffffffffffffffff1673ffffffffffffffffffffffffffffffffffffffff16815260200190815260200160002060009054906101000a900460ff1660018111156105d6576105d5611b72565b5b14610616576040517f08c379a000000000000000000000000000000000000000000000000000000000815260040161060d90612270565b60405180910390fd5b806000808473ffffffffffffffffffffffffffffffffffffffff1673ffffffffffffffffffffffffffffffffffffffff16815260200190815260200160002060006101000a81548160ff0219169083600181111561067757610676611b72565b5b02179055505050565b60018081111561069357610692611b72565b5b6000803373ffffffffffffffffffffffffffffffffffffffff1673ffffffffffffffffffffffffffffffffffffffff16815260200190815260200160002060009054906101000a900460ff1660018111156106f1576106f0611b72565b5b14610731576040517f08c379a000000000000000000000000000000000000000000000000000000000815260040161072890612270565b60405180910390fd5b600060018260405161074391906122cc565b90815260200160405180910390206006015403610795576040517f08c379a000000000000000000000000000000000000000000000000000000000815260040161078c9061232f565b60405180910390fd5b600180826040516107a691906122cc565b908152602001604051809103902060050160016101000a81548160ff0219169083151502179055507ff55848008d25f0f88e1284d5f3f6ae51c9bd783c934d82e494e659db7924d973816040516107fd91906123bb565b60405180910390a1610998816040518060400160405280600681526020017f5245564f4b45000000000000000000000000000000000000000000000000000081525060018460405161084f91906122cc565b9081526020016040518091039020600301805461086b9061240c565b80601f01602080910402602001604051908101604052809291908181526020018280546108979061240c565b80156108e45780601f106108b9576101008083540402835291602001916108e4565b820191906000526020600020905b8154815290600101906020018083116108c757829003601f168201915b50505050506001856040516108f991906122cc565b908152602001604051809103902060040180546109159061240c565b80601f01602080910402602001604051908101604052809291908181526020018280546109419061240c565b801561098e5780601f106109635761010080835404028352916020019161098e565b820191906000526020600020905b81548152906001019060200180831161097157829003601f168201915b50505050506117c0565b50565b60006020528060005260406000206000915054906101000a900460ff1681565b60608060006060806000806001886040516109d691906122cc565b9081526020016040518091039020905060008160000180546109f79061240c565b905003610a39576040517f08c379a0000000000000000000000000000000000000000000000000000000008152600401610a3090612489565b60405180910390fd5b8060000181600101826002015483600301846004018560050160009054906101000a900460ff16858054610a6c9061240c565b80601f0160208091040260200160405190810160405280929190818152602001828054610a989061240c565b8015610ae55780601f10610aba57610100808354040283529160200191610ae5565b820191906000526020600020905b815481529060010190602001808311610ac857829003601f168201915b50505050509550848054610af89061240c565b80601f0160208091040260200160405190810160405280929190818152602001828054610b249061240c565b8015610b715780601f10610b4657610100808354040283529160200191610b71565b820191906000526020600020905b815481529060010190602001808311610b5457829003601f168201915b50505050509450828054610b849061240c565b80601f0160208091040260200160405190810160405280929190818152602001828054610bb09061240c565b8015610bfd5780601f10610bd257610100808354040283529160200191610bfd565b820191906000526020600020905b815481529060010190602001808311610be057829003601f168201915b50505050509250818054610c109061240c565b80601f0160208091040260200160405190810160405280929190818152602001828054610c3c9061240c565b8015610c895780601f10610c5e57610100808354040283529160200191610c89565b820191906000526020600020905b815481529060010190602001808311610c6c57829003601f168201915b505050505091509650965096509650965096505091939550919395565b600180811115610cb957610cb8611b72565b5b6000803373ffffffffffffffffffffffffffffffffffffffff1673ffffffffffffffffffffffffffffffffffffffff16815260200190815260200160002060009054906101000a900460ff166001811115610d1757610d16611b72565b5b14610d57576040517f08c379a0000000000000000000000000000000000000000000000000000000008152600401610d4e90612270565b60405180910390fd5b6000600186604051610d6991906122cc565b90815260200160405180910390206006015414610dbb576040517f08c379a0000000000000000000000000000000000000000000000000000000008152600401610db2906124f5565b60405180910390fd5b60405180610100016040528086815260200185815260200184815260200183815260200182815260200160001515815260200160001515815260200142815250600186604051610e0b91906122cc565b90815260200160405180910390206000820151816000019081610e2e91906126c1565b506020820151816001019081610e4491906126c1565b50604082015181600201556060820151816003019081610e6491906126c1565b506080820151816004019081610e7a91906126c1565b5060a08201518160050160006101000a81548160ff02191690831515021790555060c08201518160050160016101000a81548160ff02191690831515021790555060e082015181600601559050507fb818f48ec653297aa79de02063b7e6d309801e1d27dcbc9f92e9c0efb9be5cb5858486604051610efb93929190612793565b60405180910390a1610f44856040518060400160405280600881526020017f524547495354455200000000000000000000000000000000000000000000000081525084846117c0565b5050505050565b600180811115610f5e57610f5d611b72565b5b6000803373ffffffffffffffffffffffffffffffffffffffff1673ffffffffffffffffffffffffffffffffffffffff16815260200190815260200160002060009054906101000a900460ff166001811115610fbc57610fbb611b72565b5b14610ffc576040517f08c379a0000000000000000000000000000000000000000000000000000000008152600401610ff390612270565b60405180910390fd5b600060018460405161100e91906122cc565b90815260200160405180910390206006015403611060576040517f08c379a00000000000000000000000000000000000000000000000000000000081526004016110579061232f565b60405180910390fd5b600060018460405161107291906122cc565b9081526020016040518091039020600301805461108e9061240c565b80601f01602080910402602001604051908101604052809291908181526020018280546110ba9061240c565b80156111075780601f106110dc57610100808354040283529160200191611107565b820191906000526020600020905b8154815290600101906020018083116110ea57829003601f168201915b505050505090508260018560405161111f91906122cc565b9081526020016040518091039020600301908161113c91906126c1565b508160018560405161114e91906122cc565b9081526020016040518091039020600401908161116b91906126c1565b507fa22fcaa2eb8d12d3d971664f2c2d68693677ccf72b058687eabc801751a5381284828560405161119f939291906127d8565b60405180910390a16111e8846040518060400160405280600c81526020017f5550444154455f4f574e4552000000000000000000000000000000000000000081525085856117c0565b50505050565b6060806060806060600060028760405161120891906122cc565b9081526020016040518091039020805480602002602001604051908101604052809291908181526020016000905b8282101561147e57838290600052602060002090600502016040518060a00160405290816000820180546112699061240c565b80601f01602080910402602001604051908101604052809291908181526020018280546112959061240c565b80156112e25780601f106112b7576101008083540402835291602001916112e2565b820191906000526020600020905b8154815290600101906020018083116112c557829003601f168201915b505050505081526020016001820160009054906101000a900473ffffffffffffffffffffffffffffffffffffffff1673ffffffffffffffffffffffffffffffffffffffff1673ffffffffffffffffffffffffffffffffffffffff1681526020016002820180546113519061240c565b80601f016020809104026020016040519081016040528092919081815260200182805461137d9061240c565b80156113ca5780601f1061139f576101008083540402835291602001916113ca565b820191906000526020600020905b8154815290600101906020018083116113ad57829003601f168201915b505050505081526020016003820180546113e39061240c565b80601f016020809104026020016040519081016040528092919081815260200182805461140f9061240c565b801561145c5780601f106114315761010080835404028352916020019161145c565b820191906000526020600020905b81548152906001019060200180831161143f57829003601f168201915b5050505050815260200160048201548152505081526020019060010190611236565b505050509050805167ffffffffffffffff81111561149f5761149e61190e565b5b6040519080825280602002602001820160405280156114d257816020015b60608152602001906001900390816114bd5790505b509550805167ffffffffffffffff8111156114f0576114ef61190e565b5b60405190808252806020026020018201604052801561151e5781602001602082028036833780820191505090505b509450805167ffffffffffffffff81111561153c5761153b61190e565b5b60405190808252806020026020018201604052801561156f57816020015b606081526020019060019003908161155a5790505b509350805167ffffffffffffffff81111561158d5761158c61190e565b5b6040519080825280602002602001820160405280156115c057816020015b60608152602001906001900390816115ab5790505b509250805167ffffffffffffffff8111156115de576115dd61190e565b5b60405190808252806020026020018201604052801561160c5781602001602082028036833780820191505090505b50915060005b815181101561178f5781818151811061162e5761162d612824565b5b60200260200101516000015187828151811061164d5761164c612824565b5b602002602001018190525081818151811061166b5761166a612824565b5b60200260200101516020015186828151811061168a57611689612824565b5b602002602001019073ffffffffffffffffffffffffffffffffffffffff16908173ffffffffffffffffffffffffffffffffffffffff16815250508181815181106116d7576116d6612824565b5b6020026020010151604001518582815181106116f6576116f5612824565b5b602002602001018190525081818151811061171457611713612824565b5b60200260200101516060015184828151811061173357611732612824565b5b602002602001018190525081818151811061175157611750612824565b5b6020026020010151608001518382815181106117705761176f612824565b5b602002602001018181525050808061178790612882565b915050611612565b505091939590929450565b600360009054906101000a900473ffffffffffffffffffffffffffffffffffffffff1681565b6002846040516117d091906122cc565b90815260200160405180910390206040518060a001604052808581526020013373ffffffffffffffffffffffffffffffffffffffff168152602001848152602001838152602001428152509080600181540180825580915050600190039060005260206000209060050201600090919091909150600082015181600001908161185991906126c1565b5060208201518160010160006101000a81548173ffffffffffffffffffffffffffffffffffffffff021916908373ffffffffffffffffffffffffffffffffffffffff16021790555060408201518160020190816118b691906126c1565b5060608201518160030190816118cc91906126c1565b5060808201518160040155505050505050565b6000604051905090565b600080fd5b600080fd5b600080fd5b600080fd5b6000601f19601f8301169050919050565b7f4e487b7100000000000000000000000000000000000000000000000000000000600052604160045260246000fd5b611946826118fd565b810181811067ffffffffffffffff821117156119655761196461190e565b5b80604052505050565b60006119786118df565b9050611984828261193d565b919050565b600067ffffffffffffffff8211156119a4576119a361190e565b5b6119ad826118fd565b9050602081019050919050565b82818337600083830152505050565b60006119dc6119d784611989565b61196e565b9050828152602081018484840111156119f8576119f76118f8565b5b611a038482856119ba565b509392505050565b600082601f830112611a2057611a1f6118f3565b5b8135611a308482602086016119c9565b91505092915050565b600060208284031215611a4f57611a4e6118e9565b5b600082013567ffffffffffffffff811115611a6d57611a6c6118ee565b5b611a7984828501611a0b565b91505092915050565b600073ffffffffffffffffffffffffffffffffffffffff82169050919050565b6000611aad82611a82565b9050919050565b611abd81611aa2565b8114611ac857600080fd5b50565b600081359050611ada81611ab4565b92915050565b60028110611aed57600080fd5b50565b600081359050611aff81611ae0565b92915050565b60008060408385031215611b1c57611b1b6118e9565b5b6000611b2a85828601611acb565b9250506020611b3b85828601611af0565b9150509250929050565b600060208284031215611b5b57611b5a6118e9565b5b6000611b6984828501611acb565b91505092915050565b7f4e487b7100000000000000000000000000000000000000000000000000000000600052602160045260246000fd5b60028110611bb257611bb1611b72565b5b50565b6000819050611bc382611ba1565b919050565b6000611bd382611bb5565b9050919050565b611be381611bc8565b82525050565b6000602082019050611bfe6000830184611bda565b92915050565b600081519050919050565b600082825260208201905092915050565b60005b83811015611c3e578082015181840152602081019050611c23565b60008484015250505050565b6000611c5582611c04565b611c5f8185611c0f565b9350611c6f818560208601611c20565b611c78816118fd565b840191505092915050565b6000819050919050565b611c9681611c83565b82525050565b60008115159050919050565b611cb181611c9c565b82525050565b600060c0820190508181036000830152611cd18189611c4a565b90508181036020830152611ce58188611c4a565b9050611cf46040830187611c8d565b8181036060830152611d068186611c4a565b90508181036080830152611d1a8185611c4a565b9050611d2960a0830184611ca8565b979650505050505050565b611d3d81611c83565b8114611d4857600080fd5b50565b600081359050611d5a81611d34565b92915050565b600080600080600060a08688031215611d7c57611d7b6118e9565b5b600086013567ffffffffffffffff811115611d9a57611d996118ee565b5b611da688828901611a0b565b955050602086013567ffffffffffffffff811115611dc757611dc66118ee565b5b611dd388828901611a0b565b9450506040611de488828901611d4b565b935050606086013567ffffffffffffffff811115611e0557611e046118ee565b5b611e1188828901611a0b565b925050608086013567ffffffffffffffff811115611e3257611e316118ee565b5b611e3e88828901611a0b565b9150509295509295909350565b600080600060608486031215611e6457611e636118e9565b5b600084013567ffffffffffffffff811115611e8257611e816118ee565b5b611e8e86828701611a0b565b935050602084013567ffffffffffffffff811115611eaf57611eae6118ee565b5b611ebb86828701611a0b565b925050604084013567ffffffffffffffff811115611edc57611edb6118ee565b5b611ee886828701611a0b565b9150509250925092565b600081519050919050565b600082825260208201905092915050565b6000819050602082019050919050565b600082825260208201905092915050565b6000611f3a82611c04565b611f448185611f1e565b9350611f54818560208601611c20565b611f5d816118fd565b840191505092915050565b6000611f748383611f2f565b905092915050565b6000602082019050919050565b6000611f9482611ef2565b611f9e8185611efd565b935083602082028501611fb085611f0e565b8060005b85811015611fec5784840389528151611fcd8582611f68565b9450611fd883611f7c565b925060208a01995050600181019050611fb4565b50829750879550505050505092915050565b600081519050919050565b600082825260208201905092915050565b6000819050602082019050919050565b61203381611aa2565b82525050565b6000612045838361202a565b60208301905092915050565b6000602082019050919050565b600061206982611ffe565b6120738185612009565b935061207e8361201a565b8060005b838110156120af5781516120968882612039565b97506120a183612051565b925050600181019050612082565b5085935050505092915050565b600081519050919050565b600082825260208201905092915050565b6000819050602082019050919050565b6000819050919050565b6120fb816120e8565b82525050565b600061210d83836120f2565b60208301905092915050565b6000602082019050919050565b6000612131826120bc565b61213b81856120c7565b9350612146836120d8565b8060005b8381101561217757815161215e8882612101565b975061216983612119565b92505060018101905061214a565b5085935050505092915050565b600060a082019050818103600083015261219e8188611f89565b905081810360208301526121b2818761205e565b905081810360408301526121c68186611f89565b905081810360608301526121da8185611f89565b905081810360808301526121ee8184612126565b90509695505050505050565b61220381611aa2565b82525050565b600060208201905061221e60008301846121fa565b92915050565b7f4f6e6c792041646d696e2f42504e000000000000000000000000000000000000600082015250565b600061225a600e83611c0f565b915061226582612224565b602082019050919050565b600060208201905081810360008301526122898161224d565b9050919050565b600081905092915050565b60006122a682611c04565b6122b08185612290565b93506122c0818560208601611c20565b80840191505092915050565b60006122d8828461229b565b915081905092915050565b7f4e6f7420666f756e640000000000000000000000000000000000000000000000600082015250565b6000612319600983611c0f565b9150612324826122e3565b602082019050919050565b600060208201905081810360008301526123488161230c565b9050919050565b7f53484d207265766f6b6564000000000000000000000000000000000000000000600082015250565b6000612385600b83611c0f565b91506123908261234f565b602082019050919050565b600060208201905081810360008301526123b481612378565b9050919050565b600060208201905081810360008301526123d58184611c4a565b905092915050565b7f4e487b7100000000000000000000000000000000000000000000000000000000600052602260045260246000fd5b6000600282049050600182168061242457607f821691505b602082108103612437576124366123dd565b5b50919050565b7f53484d206e6f7420666f756e6400000000000000000000000000000000000000600082015250565b6000612473600d83611c0f565b915061247e8261243d565b602082019050919050565b600060208201905081810360008301526124a281612466565b9050919050565b7f416c726561647920726567697374657265640000000000000000000000000000600082015250565b60006124df601283611c0f565b91506124ea826124a9565b602082019050919050565b6000602082019050818103600083015261250e816124d2565b9050919050565b60008190508160005260206000209050919050565b60006020601f8301049050919050565b600082821b905092915050565b6000600883026125777fffffffffffffffffffffffffffffffffffffffffffffffffffffffffffffffff8261253a565b612581868361253a565b95508019841693508086168417925050509392505050565b6000819050919050565b60006125be6125b96125b4846120e8565b612599565b6120e8565b9050919050565b6000819050919050565b6125d8836125a3565b6125ec6125e4826125c5565b848454612547565b825550505050565b600090565b6126016125f4565b61260c8184846125cf565b505050565b5b81811015612630576126256000826125f9565b600181019050612612565b5050565b601f8211156126755761264681612515565b61264f8461252a565b8101602085101561265e578190505b61267261266a8561252a565b830182612611565b50505b505050565b600082821c905092915050565b60006126986000198460080261267a565b1980831691505092915050565b60006126b18383612687565b9150826002028217905092915050565b6126ca82611c04565b67ffffffffffffffff8111156126e3576126e261190e565b5b6126ed825461240c565b6126f8828285612634565b600060209050601f83116001811461272b5760008415612719578287015190505b61272385826126a5565b86555061278b565b601f19841661273986612515565b60005b828110156127615784890151825560018201915060208501945060208101905061273c565b8683101561277e578489015161277a601f891682612687565b8355505b6001600288020188555050505b505050505050565b600060608201905081810360008301526127ad8186611c4a565b90506127bc6020830185611c8d565b81810360408301526127ce8184611c4a565b9050949350505050565b600060608201905081810360008301526127f28186611c4a565b905081810360208301526128068185611c4a565b9050818103604083015261281a8184611c4a565b9050949350505050565b7f4e487b7100000000000000000000000000000000000000000000000000000000600052603260045260246000fd5b7f4e487b7100000000000000000000000000000000000000000000000000000000600052601160045260246000fd5b600061288d826120e8565b91507fffffffffffffffffffffffffffffffffffffffffffffffffffffffffffffffff82036128bf576128be612853565b5b60018201905091905056fea2646970667358221220e566b4b5dc69a04b39cdd22dc2f3606dd50a088c23eefb9e57ecbc0f01b360d664736f6c63430008140033",
  "linkReferences": {},
  "deployedLinkReferences": {}
}